:10000000803102288731DA2F6A30210099002200DE
:1000100096012100980108002000A201F60180311C
:10002000F9208031003A03191628172840282200A9
:100030000E122000A001A1012030F0000230F100DA
:100040000030F2008F31DA278031E53020002006C1
:10005000031D2B282C282F280130A2003E28220027
:100060000C160230FB004530FA00AA30890B362806
:10007000FA0B3628FB0B362822000C1222000E1633
:100080008E317F2680312000220808002000A00049
:100090004C288E317F268031F6018031F920803165
:1000A000003A03195428552849281E302000A10081
:1000B0002008A20022000E122130F0000030F100D2
:1000C0000230F2000030F3008F31732780312200BC
:1000D0000E161F302000A1007A08A20022000E1286
:1000E0002130F0000030F1000230F2000030F30067
:1000F0008F317327803122000E1620302000A1009E
:100100007B08A20022000E122130F0000030F10026
:100110000230F2000030F3008F317327803122006B
:100120000E168E317F268031080099288E317F2669
:100130008031F6018031F9208031003A0319A1287D
:10014000A228962864302000A0002130F000003062
:10015000F1000030F200F3001930F4000030F50037
:100160008E31E72680312130F0000030F100393047
:10017000F2009030F3000C30F4000030F5008F31C5
:10018000B527803122000E122030F0000030F1003F
:100190000D30F2000030F3008F31732780312200E0
:1001A0000E1631302000A0002130F0000030F100A8
:1001B0000030F200F3001930F4000030F5008E3109
:1001C000E72680310B302000A10022000E122030E3
:1001D000F0000030F1000230F2000030F3008F3107
:1001E0007327803122000E168E317F268031013038
:1001F00008002400951AFD28FE2862297608F700D9
:10020000F8017708F0007808F1000530F2000030BE
:10021000F3008F31542780311C3070078400103078
:10022000713D803885000008240094007608F700AE
:10023000F8017708F0007808F1000530F20000308E
:10024000F3008F31542780311D3070078400103047
:10025000713D803885000008240095007608F7007D
:10026000F8017708F0007808F1000530F20000305E
:10027000F3008F31542780311E3070078400103016
:10028000713D803885000008240097007608F7004B
:10029000F8017708F0007808F1000530F20000302E
:1002A000F3008F31542780311F30700784001030E5
:1002B000713D8038850000082400920095160130B9
:1002C000F9006329F9017908080001302000DD07F1
:1002D0000030DE3D0130DB070030DC3DD6290C1D4F
:1002E00072297329F22982318A2281312000DD01AD
:1002F000DE0148088600870101308100F2290C1DCB
:10030000822983298D2983312123813120004808C6
:100310008600870102308100F22900305E02193028
:1003200003195D02031C95299629F2298131F321D5
:10033000813120004808860087018101F2290C1DC7
:10034000A229A329C6298331B8238131003A031D8C
:10035000AA29AB29962922008C1682302000C900D8
:10036000DD30890BB129C90BB129003222008C1272
:100370002000DB01DC01E3018E31FE26813120000B
:1003800048088600870103308100F22900305E02B0
:10039000E13003195D02031CCE29CF29F2299629E9
:1003A00048088600870104308100F2294808860049
:1003B00087010108C900CA014A08003A0319E12966
:1003C000F2294908003A03196F29013A03197F29D4
:1003D000033A03199F29013A0319D029073A03194F
:1003E000F229F2290800F7298E317F268131F601A2
:1003F0008031F9208131003A0319FF29002AF429BC
:1004000022000E123030F0008E31AF2681312200F2
:100410000E1664302000A0002130F0000030F10002
:100420000030F200F3001930F4000030F5008E3196
:10043000E72681312130F0000030F1004D30F2002C
:100440009030F3000430F4000030F5008F31B52710
:10045000813122000E122030F0000030F100053012
:10046000F2000030F3008F317327813122000E1625
:100470002C302000A0002130F0000030F1000030CE
:10048000F200F3001930F4000030F5008E31E72659
:10049000813117302000A10022000E122030F00020
:1004A0000030F1000230F2000030F3008F3173278A
:1004B000813122000E162E302000A0002130F000E5
:1004C0000030F1000030F200F3001930F400003089
:1004D000F5008E31E726813110302000A100220086
:1004E0000E122030F0000030F1000230F200003037
:1004F000F3008F317327813122000E160E12303037
:10050000F0008E31AF26813122000E168E317F260B
:10051000813108008E2A8E317F268231F6018031AA
:10052000F9208231003A0319962A972A8B2A220051
:100530000E123030F0008E31AF26823122000E16BE
:1005400064302000A0002130F0000030F1000030C5
:10055000F200F3001930F4000030F5008E31E72688
:1005600082312130F0000030F1004930F20090304B
:10057000F3000430F4000030F5008F31B5278231EC
:1005800022000E122030F0000030F1000530F200A1
:100590000030F3008F317327823122000E162C3089
:1005A0002000A0002130F0000030F1000030F20007
:1005B000F3001930F4000030F5008E31E726823167
:1005C0001A302000A10022000E122030F00000306E
:1005D000F1000230F2000030F3008F3173278231D6
:1005E00022000E162E302000A0002130F000003036
:1005F000F1000030F200F3001930F4000030F50093
:100600008E31E726823104302000A10022000E1234
:100610002030F0000030F1000230F2000030F30032
:100620008F317327823122000E160E123030F00007
:100630008E31AF26823122000E168E317F26823116
:100640000800252B8E317F268331F6018031F92079
:100650008331003A03192D2B2E2B222B22000E1250
:100660003030F0008E31AF26833122000E16643018
:100670002000A0002130F0000030F1000030F20036
:10068000F3001930F4000030F5008E31E726833195
:100690002130F0000030F1004530F2009030F300DE
:1006A0000430F4000030F5008F31B527833122008B
:1006B0000E122030F0000030F1000530F200003062
:1006C000F3008F317327833122000E162C30200067
:1006D000A0002130F0000030F1000030F200F30003
:1006E0001930F4000030F5008E31E72683311730E1
:1006F0002000A10022000E122030F0000030F10096
:100700000230F2000030F3008F3173278331220072
:100710000E162E302000A0002130F0000030F10035
:100720000030F200F3001930F4000030F5008E3193
:10073000E726833108302000A10022000E1220306D
:10074000F0000030F1000230F2000030F3008F3191
:100750007327833122000E160E123030F0008E31D6
:10076000AF26833122000E168E317F26833108009A
:10077000BC2B8E317F268331F6018031F920833105
:10078000003A0319C42BC52BB92B2030860000304A
:1007900087000630FA0000301E00FA0BCC2B3130F7
:1007A0002000A8000C30A90022000E122830F00012
:1007B0000030F1000230F2000030F3008F31732777
:1007C000833122000E160D30FA00FC30890BE62B27
:1007D000FA0BE62B22000E123230F0008E31882602
:1007E00083312030F0000630F1000030F2008F310C
:1007F0009327833122000E168E317F26833120000D
:100800002108FA00FB01FA1BFB037A08C03EC20074
:10081000FF307B3DC3002308C400C501C41BC503D2
:100820002508C600C701C61BC7034308F1004208DC
:10083000F0004308F3004208F2008F31542783315F
:1008400071082000C3007008C2004508F100440888
:10085000F0004508F3004408F2008F31542783313B
:1008600071082000C5007008C4004708F100460860
:10087000F0004708F3004608F2008F315427833117
:1008800071082000C7007008C60044084207FA003B
:100890004508433DFB0046087A07A60047087B3D14
:1008A000A70004302702B030031926020318592C80
:1008B0005A2C5C2C01305D2C003008008E31D4267F
:1008C00084318E319A26843180310C208431003A73
:1008D00003196B2C6C2C7E2C22000C16023020008D
:1008E000CC004530CB00A930890B742CCB0B742C79
:1008F000CC0B742C003222000C128F2C22008C1690
:1009000002302000CC004530CB00A930890B862C6A
:10091000CB0B862CCC0B862C003222008C120230A2
:100920002000CC004530CB00A930890B952CCB0B97
:10093000952CCC0B952C0032803195208431003AD7
:100940000319A32CA42CB62C22000C160230200074
:10095000CC004530CB00A930890BAC2CCB0BAC2C98
:10096000CC0BAC2C003222000C12C72C22008C16AF
:1009700002302000CC004530CB00A930890BBE2CC2
:10098000CB0BBE2CCC0BBE2C003222008C121030B4
:10099000F0000030F1008E31C7268431573A031938
:1009A000D22CD32C002D853162258431003A0319D5
:1009B000DA2CDB2CD32C2000D001D10122000C1624
:1009C0008C1682302000CB00DD30890BE52CCB0B60
:1009D000E52C003222000C128C1201302000D007CE
:1009E0000030D13D5108803ACB0080304B02031DCE
:1009F000FB2C03305002031CFE2CFF2CDE2C292D77
:100A0000003023009200023091003F30950515140C
:100A100013082000CD000030230092000430910024
:100A20003F309505151413082000CE000030230038
:100A30009200063091003F309505151413082000F0
:100A4000CF004E08FA004F08FB004D0880314620C9
:100A500084312000D4018E3182268431543020002C
:100A6000C800813165218431043020005406031D03
:100A70003A2D3B2D5D2DD401D201D30122000C165D
:100A800082302000CB00DD30890B442DCB0B442D70
:100A9000003222000C1201302000D2070030D33D7A
:100AA0005308803ACB0080304B02031D592D033090
:100AB0005202031C5C2D5D2D3E2D630000002B2D8A
:100AC00080310228A0308600003087000C302000E2
:100AD000BB0000301E00BB0B6A2D2100AE01AF0130
:100AE000B001B101BC01BD01782D8E317F26853169
:100AF000F6018031F9208531003A0319802D812DCE
:100B0000752D31302100C2000C30C30022000E12BE
:100B1000C230F0000030F1000230F2000030F3008B
:100B20008F317327853122000E16AE2D22000C1650
:100B300082302000BB00DD30890B9C2DBB0B9C2D2F
:100B40000032640022000C1282302000BB00DD3035
:100B5000890BA82DBB0BA82D0032640020008C1C33
:100B6000B22DB32D962D640008302000BC009D30BE
:100B7000BB000530890BBA2DBB0BBA2DBC0BBA2DAF
:100B8000003264002100B801B90122000E12323097
:100B9000F0008E3188268531A030F0000C30F10055
:100BA0000030F2008F319327853122000E1621008C
:100BB0002208AE072308AF3D2608B0072708B13D3D
:100BC0002A08BC072B08BD3D07302000BB007D3044
:100BD000890BE82DBB0BE82D640001302100B8071C
:100BE0000030B93D3908803A2000BB0080303B021C
:100BF000031DFD2D803021003802031C002E012E24
:100C0000C52D21003C083D04031D072E082E0A2E89
:100C10000030D92F2F082000BC0021002E08200012
:100C2000BB000730BD003C0DBC0CBB0CBD0B132E34
:100C30003B082100BE0020003C082100BF00310815
:100C40002000BC00210030082000BB000730BD00A0
:100C50003C0DBC0CBB0CBD0B282E3B082100C0007A
:100C600020003C082100C100BE1F372E382E502E18
:100C70003E092000BB0021003F092000BC00BB0A48
:100C80000319BC0A3C08803ABD0080303D02031DB8
:100C90004B2E10303B02031C4E2E4F2E602E082E82
:100CA0003F08803A2000BB0080303B02031D5B2ED2
:100CB000103021003E02031C5E2E5F2E602E082E97
:100CC0002100C01F642E652E7D2E40092000BB0030
:100CD000210041092000BC00BB0A0319BC0A3C08E2
:100CE000803ABD0080303D02031D782E10303B025B
:100CF000031C7B2E7C2E8D2E082E4108803A20006E
:100D0000BB0080303B02031D882E103021004002C2
:100D1000031C8B2E8C2E8D2E082E21003E092000C8
:100D2000BB0021003F092000BC00BB0A0319BC0A1C
:100D30003B082100B20020003C082100B30040091C
:100D40002000BB00210041092000BC00BB0A0319A0
:100D5000BC0A3B082100B40020003C082100B5007B
:100D60003D082000BC0021003C082000BB000730EB
:100D7000BD003C0DBC0CBB0CBD0BB92E3B082100CB
:100D8000DC0020003C082100DD00BC01BD01E02E9C
:100D900022008C1682302000BB00DD30890BCE2E65
:100DA000BB0BCE2E0032640022008C128230200059
:100DB000BB00DD30890BDA2EBB0BDA2E003264006B
:100DC00020008C1CE42EE52EC82E64000830200084
:100DD000BC009D30BB000530890BEC2EBB0BEC2E0C
:100DE000BC0BEC2E003264002100BA01BB013B08B1
:100DF000803A2000BB0080303B02031D022F803070
:100E000021003A02031C052F062F072F2D2F220049
:100E10000E123230F0008E3188268531A030F0007D
:100E20000C30F1000030F2008F3193278531220021
:100E30000E1621002A08BC072B08BD3D07302000F4
:100E4000BB007D30890B222FBB0B222F64000130A9
:100E50002100BA070030BB3DF72E21003D082000DD
:100E6000BC0021003C082000BB000730BD003C0D49
:100E7000BC0CBB0CBD0B372F3B082100AC00200085
:100E80003C082100AD005C082C072000BB002100BD
:100E90005D082D3D2000BC003C0D3C0C2100DD0018
:100EA00020003B0C2100DC00DC1F572F582F702F37
:100EB0005C092000BB0021005D092000BC00BB0ACA
:100EC0000319BC0A3C08803ABD0080303D02031D76
:100ED0006B2F20303B02031C6E2F6F2F802F082EAC
:100EE0005D08803A2000BB0080303B02031D7B2F51
:100EF000203021005C02031C7E2F7F2F802F082EC4
:100F000021005C092000BB0021005D092000BC001D
:100F1000BB0A0319BC0A3B082100B60020003C08AC
:100F20002100B7003408FA003608FB00320880318F
:100F3000462085310230F0000030F10021003208F7
:100F4000F2008F31362785310430F0000030F10097
:100F500021003408F2008F31362785310630F00049
:100F60000030F10021003608F2008F31362785313C
:100F70001030F0000030F1005730F2008F3136278A
:100F8000853131302100C2000B30C30022000E1227
:100F9000C230F0000030F1000230F2000030F30007
:100FA0008F317327853122000E168E317F268531D1
:100FB00001300800F0308400223085000030FE004F
:100FC0000130FF008E31BB268731FC01FD01553019
:100FD0008400003085000F30FE000030FF008E31AD
:100FE000BB268731DE308400003085000C30FE00E7
:100FF0000030FF008E31BB268731200084315E2C0B
:101CFE0024009512080027001308080023009511F0
:101D0E00080070082400910008008E3185268E315F
:101D1E000800193021009700080071082000E50026
:101D2E007008E40008002100911120009111240098
:101D3E00940195019701920108008B10210015174F
:101D4E000030F0000030F1008E3194268E31080004
:101D5E007008240091002000911DB62EB72EB22ED1
:101D6E009111240011080800640080010131013036
:101D7E00FE020030FF3B7F087E04031DBC2E0034A4
:101D8E002300151395137108920070089100151415
:101D9E0000000000230013080800803104208E315B
:101DAE008F3118278E318E318C268E318E319A26B8
:101DBE008E318E3190268E318E31A4268E310800D2
:101DCE007008F600F12E76088600870172088100F1
:101DDE000130F6070130F4020030F53B740A031DA2
:101DEE00FC2E750A031DFC2EFD2EEA2E0800022F76
:101DFE008E317F268E31F6018031F9208E31003AF8
:101E0E0003190A2F0B2FFF2E22000E123030F00076
:101E1E008E31AF268E3122000E168E317F268E31F8
:101E2E00080022008C0118308E000F3021008C002B
:101E3E0002308E0023008C018E010A3024008C00AB
:101E4E008E012100951327008C018E0122009D0129
:101E5E00270091010230920093018B1508000B0DA3
:101E6E000B0D0139F3002300151395131515710889
:101E7E00920070089100720893008B137D089600F3
:101E8E007C089600951400000000730C031C8B1345
:101E9E0003188B17230015110800F401F501701CAF
:101EAE00592F5A2F5E2F7208F4077308F53D013033
:101EBE00F235F30D890B5F2F0130F136F00C890BE3
:101ECE00642F70087104031D6D2F6E2F562F750829
:101EDE00F1007408F00008007008F6007308F500B1
:101EEE007208F4008C2F7608860087010108240002
:101EFE0091002000911D842F852F802F911101308C
:101F0E00F6070130F4020030F53B74087504031D2A
:101F1E00912F922F7A2F08007008F5007208F400A6
:101F2E007108F300AE2F240091012000911DA02F07
:101F3E00A12F9C2F9111750886008701240011088E
:101F4E0081000130F5070130F3020030F43B7308D5
:101F5E007404031DB32FB42F9A2F08007308F700D3
:101F6E007208F6007008F900CD2F76088400770805
:101F7E0085000008F8000130F6070030F73D7908BB
:101F8E0086008701780881000130F9070130F402DC
:101F9E000030F53B740A031DD82F750A031DD82F88
:101FAE00D92FBC2F08007008F5007208F4007108D4
:101FBE00F300F92F750886008701010824009100AF
:101FCE002000911DEB2FEC2FE72F91117508860045
:101FDE0087012400110881000130F5070130F3025A
:101FEE000030F43B73087404031DFE2FFF2FE12F06
:101FFE0008009A340E3400340034F93400347F343F
:10200E000E34DA340F3493340F3473340F34AF3458
:10201E000E340034003488340E340034003400346E
:10202E000034003400340034003400341A341034D8
:10203E000734003440340A34103407340034643426
:10204E0000341034013400340034003400340034D1
:10205E0000340034003400340034003400340034D2
:10206E000034003418340334FF347F34073418340A
:10207E000034003417340834043400340834033484
:10208E000234FF343034033401347F3418340334D3
:08209E00FF347F34B034043438
:020000040001F9
:04000E00CC3FFF3EA6
:00000001FF
