:08000000803102288731F22F44
:100CC40024009512080019302100970008007108CB
:100CD4002000A3007008A200080071082000A100F1
:100CE4007008A00008006A302100990022009601D3
:100CF4002100980108002700931C812E822E852E46
:100D04008631B3268631080021009111200091110B
:100D14002400940195019701920108008B10210091
:100D240015170030F0000030F10086316926863155
:100D340008007008240091002000911DA22EA32E0B
:100D44009E2E9111240011080800640080010131D5
:100D54000130FE020030FF3B7F087E04031DA82EF5
:100D640000342000200821040319B92EBA2EBF2E06
:100D740021088A0020080A00863127009310080001
:100D84008631752686318731292786318631862634
:100D94008631863165268631863190268631080073
:100DA4004E30F000EB30890BD52EF00BD52E000021
:100DB40020008C18DE2EDF2EEB2E031022000C1EDA
:100DC40003140318E62EE92E22000C16EB2E220043
:100DD4000C120800FA01F601873186278631003AA1
:100DE4000319F52EF62E052F22000E12F00186317E
:100DF4009B268631E53A031D002F012F032FFA01AC
:100E0400FA0A22000E168631622686317A08080014
:100E1400F401F501701C0F2F102F142F7208F40722
:100E24007308F53D0130F235F30D890B152F0130B0
:100E3400F136F00C890B1A2F70087104031D232F4F
:100E4400242F0C2F7508F1007408F000080022000C
:100E54008C0118308E000F3021008C0002308E007F
:100E640023008C018E010A3024008C008E012100A5
:100E7400951327008C018E0122009D01270091010A
:100E8400023092009301D230F0000630F100863136
:100E94006F2687318B1508008631C226873186314B
:100EA4008626873122000E168E158631EC26873170
:100EB400003A03195E2F5F2F6F2F22000C160230A9
:100EC400FC004530FB00AA30890B662FFB0B662F14
:100ED400FC0B662F22000C127E2F22008C1602308F
:100EE400FC004530FB00AA30890B762FFB0B762FD4
:100EF400FC0B762F22008C1286317D26873163000D
:100F040000007E2F803102282400951A8A2F8B2F0F
:100F1400EF2F7608F700F8017708F0007808F10061
:100F24000530F2000030F30087310A2787311C3086
:100F3400700784000830713D803885000008240063
:100F440094007608F700F8017708F0007808F100BB
:100F54000530F2000030F30087310A2787311D3055
:100F6400700784000830713D803885000008240033
:100F740095007608F700F8017708F0007808F1008A
:100F84000530F2000030F30087310A2787311E3024
:100F9400700784000830713D803885000008240003
:100FA40097007608F700F8017708F0007808F10058
:100FB4000530F2000030F30087310A2787311F30F3
:100FC400700784000830713D8038850000082400D3
:100FD40092009516F901F90AF02FF9017908080031
:100FE400F0308400223085000030FE000130FF0024
:100FF4008631A7268731200087314E2F8634063468
:101004000034003486340734623406340034003447
:1010140000340034003400349B340634003400348B
:10102400003400340034003400340034003400341C
:101034000034003400341A3410340734003440349B
:101044000A34103407340034643400341034013466
:10105400003418340334FF347F3407341834003434
:0A106400003417340834043400345B
:020000040001F9
:04000E00CC3FFF3EA6
:00000001FF
