:10000000803102288731DD2F2300151395137108E5
:1000100092007008910015140000000023001308DE
:1000200008002000A00017288E3116268031F60126
:100030008031C4208031003A03191F282028142859
:100040001E302000A1002008A20022000E12213044
:10005000F0000030F1000230F2000030F3008F3188
:100060002127803122000E161F302000A1007A08BF
:10007000A20022000E122130F0000030F100023008
:10008000F2000030F3008F312127803122000E165C
:1000900020302000A1007B08A20022000E12213097
:1000A000F0000030F1000230F2000030F3008F3138
:1000B0002127803122000E168E311626803108004D
:1000C00064288E3116268031F6018031C4208031BB
:1000D000003A03196C286D28612864302000A000C4
:1000E0002130F0000030F1000030F200F300193050
:1000F000F4000030F5008E31992680312130F00077
:100100000030F1003930F2009030F3000C30F40090
:100110000030F5008F316327803122000E1220302D
:10012000F0000030F1000D30F2000030F3008F31AC
:100130002127803122000E1631302000A00021300E
:10014000F0000030F1000030F200F3001930F4004C
:100150000030F5008E31992680310B302000A1004F
:1001600022000E122030F0000030F1000230F200C8
:100170000030F3008F312127803122000E168E319E
:1001800016268031013008002400951AC828C92895
:100190002D297608F700F8017708F0007808F100BB
:1001A0000530F2000030F3008F31022780311C301F
:1001B000700784001030713D8038850000082400ED
:1001C00094007608F700F8017708F0007808F1004D
:1001D0000530F2000030F3008F31022780311D30EE
:1001E000700784001030713D8038850000082400BD
:1001F00095007608F700F8017708F0007808F1001C
:100200000530F2000030F3008F31022780311E30BC
:10021000700784001030713D80388500000824008C
:1002200097007608F700F8017708F0007808F100E9
:100230000530F2000030F3008F31022780311F308B
:10024000700784001030713D80388500000824005C
:10025000920095160130F9002E29F901790808005D
:1002600001302000E2070030E33D0130E0070030BC
:10027000E13DA1290C1D3D293E29BD298231552290
:1002800081312000E201E301490886008701013045
:100290008100BD290C1D4D294E2958298231EC229F
:1002A0008131200049088600870102308100BD2984
:1002B00000306302193003196202031C60296129AE
:1002C000BD298131BE218131200049088600870186
:1002D0008101BD290C1D6D296E299129833183234C
:1002E0008131003A031D75297629612922008C1677
:1002F00082302000CA00DD30890B7C29CA0B7C29A2
:10030000003222008C122000E001E101E4018E3174
:10031000B026813120004908860087010330810022
:10032000BD2900306302E13003196202031C9929E0
:100330009A29BD2961294908860087010430810076
:10034000BD294908860087010108CA00CB014B0876
:10035000003A0319AC29BD294A08003A03193A2981
:10036000013A03194A29033A03196A29013A031980
:100370009B29073A0319BD29BD290800C2298E31DE
:1003800016268131F6018031C4208131003A0319EB
:10039000CA29CB29BF2922000E123030F0008E313D
:1003A0005F26813122000E1664302000A00021302B
:1003B000F0000030F1000030F200F3001930F400DA
:1003C0000030F5008E31992681312130F000003067
:1003D000F1004D30F2009030F3000430F4000030B2
:1003E000F5008F316327813122000E122030F0009A
:1003F0000030F1000530F2000030F3008F3121278A
:10040000813122000E162C302000A0002130F00097
:100410000030F1000030F200F3001930F400003039
:10042000F5008E319926813117302000A10022007D
:100430000E122030F0000030F1000230F2000030E7
:10044000F3008F312127813122000E162E3020003B
:10045000A0002130F0000030F1000030F200F30085
:100460001930F4000030F5008E31992681311030BA
:100470002000A10022000E122030F0000030F10018
:100480000230F2000030F3008F3121278131220049
:100490000E160E123030F0008E315F2681312200B0
:1004A0000E168E31162681310800592A8E311626F5
:1004B0008231F6018031C4208231003A0319612A69
:1004C000622A562A22000E123030F0008E315F264A
:1004D000823122000E1664302000A0002130F0008E
:1004E0000030F1000030F200F3001930F400003069
:1004F000F5008E31992682312130F0000030F10074
:100500004930F2009030F3000430F4000030F50080
:100510008F316327823122000E122030F00000302C
:10052000F1000530F2000030F3008F3121278231D5
:1005300022000E162C302000A0002130F0000030E8
:10054000F1000030F200F3001930F4000030F50043
:100550008E31992682311A302000A10022000E121D
:100560002030F0000030F1000230F2000030F300E3
:100570008F312127823122000E162E302000A0005C
:100580002130F0000030F1000030F200F3001930AB
:10059000F4000030F5008E319926823104302000BD
:1005A000A10022000E122030F0000030F1000230D5
:1005B000F2000030F3008F312127823122000E1625
:1005C0000E123030F0008E315F26823122000E167E
:1005D0008E31162682310800F02A8E31162682319D
:1005E000F6018031C4208231003A0319F82AF92A31
:1005F000ED2A22000E123030F0008E315F2682315B
:1006000022000E1664302000A0002130F0000030DF
:10061000F1000030F200F3001930F4000030F50072
:100620008E31992682312130F0000030F1004530C2
:10063000F2009030F3000430F4000030F5008F3108
:100640006327823122000E122030F0000030F100CA
:100650000530F2000030F3008F3121278231220073
:100660000E162C302000A0002130F0000030F100E8
:100670000030F200F3001930F4000030F5008E3144
:100680009926823117302000A10022000E1220305E
:10069000F0000030F1000230F2000030F3008F3142
:1006A0002127823122000E162E302000A00021309A
:1006B000F0000030F1000030F200F3001930F400D7
:1006C0000030F5008E319926823108302000A100DB
:1006D00022000E122030F0000030F1000230F20053
:1006E0000030F3008F312127823122000E160E12C6
:1006F0003030F0008E315F26823122000E168E31AE
:10070000162682310800872B8E3116268331F6019A
:100710008031C4208331003A03198F2B902B842B16
:1007200020308600003087000630FA0000301E00BE
:10073000FA0B972B31302000A8000C30A9002200C2
:100740000E122830F0000030F1000230F2000030CC
:10075000F3008F312127833122000E160D30FA006D
:10076000FC30890BB12BFA0BB12B22000E12B230E8
:100770002000C20042084038C2004208F0008E311A
:100780005F2683312030F0000630F1000030F200A7
:100790008F314127833122000E168E311626833188
:1007A00020002108FA00FB01FA1BFB037A08C03E77
:1007B000C300FF307B3DC4002308C500C601C51B34
:1007C000C6032508C700C801C71BC8034408F100B9
:1007D0004308F0004408F3004308F2008F31022779
:1007E000833171082000C4007008C3004608F1007E
:1007F0004508F0004608F3004508F2008F31022753
:10080000833171082000C6007008C5004808F10057
:100810004708F0004808F3004708F2008F3102272C
:10082000833171082000C8007008C70045084307DD
:10083000FA004608443DFB0047087A07A60048082E
:100840007B3DA70004302702B030031926020318AD
:100850002A2C2B2C2D2C01302E2C003008008E3110
:10086000862684318E314A2684318E313826843171
:10087000003A03193C2C3D2C4E2C22008C160230E1
:100880002000CD004530CC00A930890B452CCC0B85
:10089000452CCD0B452C003222008C121030F0007C
:1008A0000030F1005730F2008E31E42684318F3170
:1008B000D3278431003A03195E2C5F2C712C22005F
:1008C0000C1602302000CD004530CC00A930890B39
:1008D000672CCC0B672CCD0B672C003222000C123E
:1008E000822C22008C1602302000CD004530CC0036
:1008F000A930890B792CCC0B792CCD0B792C0032BB
:1009000022008C12640002302000CD004530CC0063
:10091000A930890B892CCC0B892CCD0B892C00326A
:100920006400803160208431003A0319982C992C9E
:10093000AB2C22000C1602302000CD004530CC003C
:10094000A930890BA12CCC0BA12CCD0BA12C0032F2
:1009500022000C12BC2C22008C1602302000CD008C
:100960004530CC00A930890BB32CCC0BB32CCD0B6C
:10097000B32C003222008C1264001030F0000030E2
:10098000F100803104208431573A031DC82CC92C52
:10099000022D003023009200023091003F30950577
:1009A000151413082000CE000030230092000430FC
:1009B00091003F309505151413082000CF0000303A
:1009C00023009200063091003F309505151413085E
:1009D0002000D0004F08FA005008FB004E0880317C
:1009E000112084310A2D22000C168C168230200032
:1009F000CC00DD30890BFA2CCC0BFA2C0032220013
:100A00000C128C12853143258431003A0319092DCB
:100A10000A2DF32C2000D3018E314126843153302E
:100A20002000C90081313021843104302000530678
:100A3000031D1B2D1C2D3E2DD301D101D2012200FF
:100A40000C1682302000CC00DD30890B252DCC0B1C
:100A5000252D003222000C1201302000D107003079
:100A6000D23D5208803ACC0080304C02031D3A2D12
:100A700003305102031C3D2D3E2D1F2D630000004D
:100A80000C2D80310228A03086000030870006300F
:100A90002000BB0000301E00BB0B4B2D2100A80125
:100AA000A901AA01AB01B501B601592D8E31162657
:100AB0008531F6018031C4208531003A0319612D5A
:100AC000622D562D31302100BB000C30BC002200BD
:100AD0000E12BB30F0000030F1000230F2000030A6
:100AE000F3008F312127853122000E168E31162614
:100AF000853107302000BB007D30890B7D2DBB0B7D
:100B00007D2DF6018031C42085319E2D22000C16EA
:100B100082302000BB00DD30890B8C2DBB0B8C2D6F
:100B20000032640022000C1282302000BB00DD3055
:100B3000890B982DBB0B982D0032640020008C1877
:100B4000A22DA32D862D640008302000BC009D300E
:100B5000BB000530890BAA2DBB0BAA2DBC0BAA2DFF
:100B6000003264002100AC01AD0122000E12B2304F
:100B70002100B30033084038B3003308F0008E3151
:100B80005F268531A030F0000630F1000030F20021
:100B90008F314127853122000E16210021082000C7
:100BA000BB00BC01BB1BBC033B082100A807200005
:100BB0003C082100A93D23082000BB00BC01BB1B51
:100BC000BC033B082100AA0720003C082100AB3DE4
:100BD00025082000BB00BC01BB1BBC033B08210057
:100BE000B50720003C082100B63D07302000BB00BF
:100BF0007D30890BF92DBB0BF92D640001302100EC
:100C0000AC070030AD3D2D08803A2000BB0080309D
:100C10003B02031D0E2E803021002C02031C112EDE
:100C2000122EB52D210035083604031D182E192E5D
:100C30001B2E0030DC2F29082000BC0021002808D2
:100C40002000BB000730BD003C0DBC0CBB0CBD0B35
:100C5000242E3B082100B70020003C082100B800EA
:100C60002B082000BC0021002A082000BB00073010
:100C7000BD003C0DBC0CBB0CBD0B392E3B0821004C
:100C8000B90020003C082100BA00B71F482E492EA9
:100C9000612E37092000BB00210038092000BC006C
:100CA000BB0A0319BC0A3C08803ABD0080303D02F3
:100CB000031D5C2E10303B02031C5F2E602E712E34
:100CC000192E3808803A2000BB0080303B02031DFB
:100CD0006C2E103021003702031C6F2E702E712EE7
:100CE000192E2100B91F752E762E8E2E390920005F
:100CF000BB0021003A092000BC00BB0A0319BC0A52
:100D00003C08803ABD0080303D02031D892E103022
:100D10003B02031C8C2E8D2E9E2E192E3A08803AF3
:100D20002000BB0080303B02031D992E10302100B3
:100D30003902031C9C2E9D2E9E2E192E2100370356
:100D4000FF3AB0003903FF3AB10036082000BC007A
:100D5000210035082000BB000730BD003C0DBC0C55
:100D6000BB0CBD0BAE2E3B082100D50020003C087B
:100D70002100D600B501B601D52E22008C16823096
:100D80002000BB00DD30890BC32EBB0BC32E00320D
:100D9000640022008C1282302000BB00DD30890B01
:100DA000CF2EBB0BCF2E0032640020008C18D92E22
:100DB000DA2EBD2E640008302000BC009D30BB0040
:100DC0000530890BE12EBB0BE12EBC0BE12E00326E
:100DD00064002100AE01AF012F08803A2000BB0063
:100DE00080303B02031DF72E803021002E02031CB1
:100DF000FA2EFB2EFC2E312F22000E12B2302100D3
:100E0000B40034084038B4003408F0008E315F2656
:100E10008531A030F0000630F1000030F2008F3153
:100E20004127853122000E16210025082000BB0035
:100E3000BC01BB1BBC033B082100B50720003C08DC
:100E40002100B63D07302000BB007D30890B262FE6
:100E5000BB0B262F640001302100AE070030AF3DF0
:100E6000EC2E210036082000BC00210035082000AF
:100E7000BB000730BD003C0DBC0CBB0CBD0B3B2FB9
:100E80003B082100A60020003C082100A7005508CF
:100E900026072000BB0021005608273D2000BC008B
:100EA0003C0D3C0C2100D60020003B0C2100D5005D
:100EB000D51F5B2F5C2F742F55092000BB0021002C
:100EC00056092000BC00BB0A0319BC0A3C08803A42
:100ED000BD0080303D02031D6F2F20303B02031CFC
:100EE000722F732F842F192E5608803A2000BB00D2
:100EF00080303B02031D7F2F203021005502031C50
:100F0000822F832F842F192E21005503FF3AB20020
:100F10003108FA003208FB00300880311120853199
:100F20000230F0000030F10021003008F2008E3174
:100F3000E42685310430F0000030F1002100310852
:100F4000F2008E31E42685310630F0000030F100E9
:100F500021003208F2008E31E42685311030F00095
:100F60000030F1005730F2008E31E4268531BB2F7E
:100F70008E3116268531F6018031C4208531003A44
:100F80000319C32FC42FB82F31302100BB000B3001
:100F9000BC0022000E12BB30F0000030F100023025
:100FA000F2000030F3008F312127853122000E1628
:100FB0008E3116268531013008008E311426873196
:100FC000E9008E3115268731EA00F03084002230A6
:100FD00085000030FE000130FF008E316B26873126
:100FE000FC01FD0154308400003085001130FE000A
:100FF0000030FF008E316B268731200084312F2C8A
:101C28008034003424009512080023009511080020
:101C38008E3119268E3108001930210097000800CE
:101C480071082000E8007008E7000800710820000B
:101C5800E6007008E50008006A30210099002200BB
:101C680096012100980108002300951D3C2E3D2E69
:101C78003F2E0130402E003008002700931C452ECF
:101C8800462E492E8E3177268E310800210091117B
:101C980020009111240094019501970192010800F8
:101CA8008B10210015170030F0000030F1008E3144
:101CB80024268E3108007008240091002000911D10
:101CC800662E672E622E9111240011080800640008
:101CD800800101310130FE020030FF3B7F087E04A5
:101CE800031D6C2E003420006508660403197D2E40
:101CF8007E2E832E66088A0065080A008E3127002A
:101D0800931008008E3130268E318F3188278E311E
:101D18008E311C268E318E314A268E318E31202608
:101D28008E318E3154268E3108007008F600A32EAD
:101D3800760886008701720881000130F6070130B5
:101D4800F4020030F53B740A031DAE2E750A031D1C
:101D5800AE2EAF2E9C2E0800B42E8E3116268E3154
:101D6800F6018031C4208E31003A0319BC2EBD2EF5
:101D7800B12E22000E123030F0008E315F268E31E7
:101D880022000E168E3116268E3108004E30F000D5
:101D9800EB30890BCD2EF00BCD2E000020008C18D7
:101DA800D62ED72EE32E031022000C1E0314031880
:101DB800DE2EE12E22000C16E32E22000C12080063
:101DC8000B0D0B0D0139F300230015139513151591
:101DD8007108920070089100720893008B137D08B7
:101DE80096007C089600951400000000730C031CF4
:101DF8008B1303188B17230015110800F401F50144
:101E0800701C072F082F0C2F7208F4077308F53D74
:101E18000130F235F30D890B0D2F0130F136F00C3E
:101E2800890B122F70087104031D1B2F1C2F042F00
:101E38007508F1007408F00008007008F6007308CF
:101E4800F5007208F4003A2F760886008701010829
:101E5800240091002000911D322F332F2E2F911135
:101E68000130F6070130F4020030F53B74087504C0
:101E7800031D3F2F402F282F08007008F500720817
:101E8800F4007108F3005C2F240091012000911DDB
:101E98004E2F4F2F4A2F9111750886008701240075
:101EA800110881000130F5070130F3020030F43BDE
:101EB80073087404031D612F622F482F08007308EC
:101EC800F7007208F6007008F9007B2F7608840086
:101ED800770885000008F8000130F6070030F73D64
:101EE800790886008701780881000130F9070130F8
:101EF800F4020030F53B740A031D862F750A031D92
:101F0800862F872F6A2F080022008C0118308E0038
:101F18000F3021008C0002308E0023008C018E01CE
:101F28000A3024008C008E012100951327008C01B3
:101F38008E0122009D012700910102309200930139
:101F4800CA30F0000E30F1008E312A268F318B1501
:101F580008007008F5007208F4007108F300CC2F2F
:101F68007508860087010108240091002000911D52
:101F7800BE2FBF2FBA2F9111750886008701240044
:101F8800110881000130F5070130F3020030F43BFD
:101F980073087404031DD12FD22FB42F0800F60143
:101FA8008031C4208F31003A0319DB2FDC2FF92F41
:101FB80022000E1220006A08FB006908FA007A3035
:101FC800F0000230F1000030F2008F31AD278F3180
:101FD800E5307B06031DF12FF22FF92F22000E1694
:101FE8008E3116268F310130FF2F22000E168E31CA
:101FF80016268F31003008004A340E34003400347D
:10200800C434003416340E34AD340F3441340F3434
:1020180021340F345F340E3400340034003400347B
:102028000034003400340034003400340034003408
:102038000034103410340134003440340034103487
:102048000134003464340034103401340034003472
:1020580000340034003400340034003400340034D8
:102068000034003400340034003418340334FF34AE
:102078007F340734183400340034173408340434F7
:102088000034083403340234FF3430340334013468
:0E2098007F3418340334FF347F34B034043402
:020000040001F9
:04000E00CC3FFF3EA6
:00000001FF
