:08000000803102288731F22F44
:100B5600240095120800193021009700080071083A
:100B66002000BD007008BC00080071082000BB0012
:100B76007008BA0008006A30210099002200960128
:100B86002100980108002700931CCA2DCB2DCE2DDD
:100B96008531FC2585310800210091112000911135
:100BA6002400940195019701920108008B10210001
:100BB60015170030F0000030F1008531B22585317F
:100BC60008007008240091002000911DEB2DEC2DEB
:100BD600E72D9111240011080800640080010131FD
:100BE6000130FE020030FF3B7F087E04031DF12D1D
:100BF600003420003A083B040319022E032E082E67
:100C06003B088A003A080A0086312700931008003C
:100C16008531BE2586318631AE2686318531CF2592
:100C260086318531AE2586318531D9258631080054
:100C3600F6007608F500282E7508860087017008EC
:100C460081000130F4007408F5070130F20200302B
:100C5600F33B720A031D332E730A031D332E342E03
:100C66001F2E08004E30F000EB30890B382EF00BAB
:100C7600382E000020008C18412E422E4E2E0310D6
:100C860022000C1E03140318492E4C2E22000C16AB
:100C96004E2E22000C120800FA01F6018731862733
:100CA6008631003A0319582E592E682E22000E124C
:100CB600F0018531E4258631E53A031D632E642E65
:100CC600662EFA01FA0A22000E168531AB25863108
:100CD6007A080800F401F501701C722E732E772E27
:100CE6007208F4077308F53D0130F235F30D890BF0
:100CF600782E0130F136F00C890B7D2E70087104C8
:100D0600031D862E872E6F2E7508F1007408F000DD
:100D160008007008F6007208F5007108F400A72EA6
:100D26007608860087010108240091002000911DA5
:100D36009D2E9E2E992E91110130F3007308F60711
:100D46000130F4020030F53B74087504031DAC2E27
:100D5600AD2E932E080022008C0118308E000F3025
:100D660021008C0002308E0023008C018E010A3097
:100D760024008C008E012100951327008C018E0122
:100D860022009D0127009101023092009301353027
:100D9600F0000630F1008531B82586318B15080044
:100DA600F8007108F6007008F5007808F900EE2ED4
:100DB60075088400760885000008F7000130F507FD
:100DC6000030F63D790886008701770881000130FA
:100DD600F4007408F9070130F2020030F33B720A9E
:100DE600031DF92E730A031DF92EFA2EDB2E0800B9
:100DF60086310B2686318531CF25863122000E16A7
:100E06008E1586314F268631003A03190B2F0C2F8B
:100E16001C2F22000C160230FC004530FB00AA30C5
:100E2600890B132FFB0B132FFC0B132F22000C1215
:100E36002B2F22008C160230FC004530FB00AA3016
:100E4600890B232FFB0B232FFC0B232F22008C1245
:100E56008731362786318531C62586316300000005
:100E66002E2F80310228F601873186278731003AF6
:100E7600031D3E2F3F2F402F852F24302000A0003A
:100E86000030F000F1001930F2000030F30021309C
:100E960086311B2687312B30F0008830F1000C306C
:100EA600F2000030F30021308631D326873122004C
:100EB6000E122030F0000D30F1000030F2008631C5
:100EC6008C26873122000E1631302000A00000301B
:100ED600F000F1001930F2000030F30021308631C5
:100EE6001B2687310B302000A10022000E12203075
:100EF600F0000230F1000030F20086318C26873196
:100F060022000E1608002400951A8A2F8B2FEF2F29
:100F16007608F700F8017708F0007808F100053048
:100F2600F2000030F30086316D2687311C307007E1
:100F360084000830713D8038850000082400940044
:100F46007608F700F8017708F0007808F100053018
:100F5600F2000030F30086316D2687311D307007B0
:100F660084000830713D8038850000082400950013
:100F76007608F700F8017708F0007808F1000530E8
:100F8600F2000030F30086316D2687311E3070077F
:100F960084000830713D80388500000824009700E1
:100FA6007608F700F8017708F0007808F1000530B8
:100FB600F2000030F30086316D2687311F3070074E
:100FC60084000830713D80388500000824009200B6
:100FD6009516F901F90AF02FF90179080800F030A1
:100FE6008400223085000030FE000130FF0085318C
:100FF600F025873120008631FB2ECF3405340034AE
:10100600003486340734AB340534003400340034FD
:1010160000348C340634E4340534003400340034AF
:10102600003400340034003400340034003400341A
:10103600003400341A3410340734003440340A348F
:10104600103407340034643400341034013400346E
:1010560018340334FF347F34073418340034003432
:0810660017340834043400348F
:020000040001F9
:04000E00CC3FFF3EA6
:00000001FF
