:08000000803102288731E52F51
:100488002400951208002300951108007008240024
:10049800910008008231472282310800193021007A
:1004A8009700080071082000DC007008DB000800D5
:1004B80071082000DA007008D90008006A302100AD
:1004C8009900220096012100980108002700931C3A
:1004D8006E2A6F2A722A8231A022823108002100F6
:1004E8009111200091112400940195019701920126
:1004F80008008B10210015170030F0000030F100C3
:1005080082315622823108007008240091002000B0
:10051800911D8F2A902A8B2A911124001108080016
:100528006400800101310130FE020030FF3B7F088A
:100538007E04031D952A0034200059085A04031923
:10054800A62AA72AAC2A5A088A0059080A00823122
:100558002700931008008231622282318331B1234F
:10056800823182314E22823182317322823182314C
:100578005222823182317D22823108007008F600D1
:10058800CC2A760886008701720881000130F607B8
:100598000130F4020030F53B740A031DD72A750AAE
:1005A800031DD72AD82AC52A0800DD2A8231442209
:1005B8008231F601843180248231003A0319E52A18
:1005C800E62ADA2A22000E123030F0008231882220
:1005D800823122000E1682314422823108004E30C8
:1005E800F000EB30890BF62AF00BF62A0000200009
:1005F8008C18FF2A002B0C2B031022000C1E03144E
:100608000318072B0A2B22000C160C2B22000C12A5
:100618000800FA01F601843180248331003A031975
:10062800162B172B262B22000E12F001823188225E
:100638008331E53A031D212B222B242B0130FA00AC
:1006480022000E168231442283317A080800F40110
:10065800F501701C302B312B352B7208F407730809
:10066800F53D0130F235F30D890B362B0130F136AB
:10067800F00C890B3B2B70087104031D442B452B90
:100688002D2B7508F1007408F00008007008F600BA
:100698007308F5007208F400632B7608860087015A
:1006A8000108240091002000911D5B2B5C2B572B27
:1006B80091110130F6070130F4020030F53B74085F
:1006C8007504031D682B692B512B08007008F50071
:1006D8007208F4007108F300852B240091012000B2
:1006E800911D772B782B732B911175088600870144
:1006F8002400110881000130F5070130F3020030B1
:10070800F43B73087404031D8A2B8B2B712B080090
:100718007308F7007208F6007008F900A42B760831
:100728008400770885000008F8000130F6070030DB
:10073800F73D790886008701780881000130F907BC
:100748000130F4020030F53B740A031DAF2B750A23
:10075800031DAF2BB02B932B080022008C011830FF
:100768008E000F3021008C0002308E0023008C0197
:100778008E010A3024008C008E0121009513270079
:100788008C018E0122009D01270091010230920008
:100798009301F330F0000230F10082315C228331A2
:1007A8008B1508008231AF22833182317322833165
:1007B80022000E168E1583310D238331003A03195A
:1007C800E62BE72BF92B22000C1602302000CC0078
:1007D8004530CB00A930890BEF2BCB0BEF2BCC0B83
:1007E800EF2B003222000C120A2C22008C16023049
:1007F8002000CC004530CB00A930890B012CCB0B55
:10080800012CCC0B012C003222008C1284311D24C7
:1008180083312000CD0182316A2283314D3020009E
:10082800C8008431EC248331630000000F2C803130
:100838000228212C823144228431F601843180241B
:100848008431003A0319292C2A2C1E2C243020002C
:10085800A0002130F0000030F1000030F200F30079
:100868001930F4000030F5008231C2228431213081
:10087800F0000030F1003930F2008830F3000C301D
:10088800F4000030F50083318C23843122000E12ED
:100898002030F0000030F1000D30F2000030F3009D
:1008A80083314A23843122000E1631302000A00003
:1008B8002130F0000030F1000030F200F300193070
:1008C800F4000030F5008231C22284310B30200060
:1008D800A10022000E122030F0000030F10002309A
:1008E800F2000030F30083314A23843122000E16CF
:1008F80082314422843108002400951A842C852CE6
:10090800E92C7608F700F8017708F0007808F1007C
:100918000530F2000030F30083312B2384311C3082
:10092800700784000830713D803885000008240075
:1009380094007608F700F8017708F0007808F100CD
:100948000530F2000030F30083312B2384311D3051
:10095800700784000830713D803885000008240045
:1009680095007608F700F8017708F0007808F1009C
:100978000530F2000030F30083312B2384311E3020
:10098800700784000830713D803885000008240015
:1009980097007608F700F8017708F0007808F1006A
:1009A8000530F2000030F30083312B2384311F30EF
:1009B800700784000830713D8038850000082400E5
:1009C800920095160130F900EA2CF901790808001F
:1009D80001302000D6070030D73D0130D407003061
:1009E800D53D5D2D0C1DF92CFA2C792D863111265B
:1009F80084312000D601D7014808860087010130DC
:100A08008100792D0C1D092D0A2D142D8631A8265B
:100A18008431200048088600870102308100792D42
:100A280000305702193003195602031C1C2D1D2DC6
:100A3800792D85317A258431200048088600870180
:100A48008101792D0C1D292D2A2D4D2D87313F2708
:100A58008431003A031D312D322D1D2D22008C16B4
:100A680082302000C900DD30890B382DC90B382DA4
:100A7800003222008C122000D401D501D801823125
:100A8800D92284312000480886008701033081007C
:100A9800792D00305702E13003195602031C552DF9
:100AA800562D792D1D2D48088600870104308100B8
:100AB800792D4808860087010108C900CA014A083B
:100AC800003A0319682D792D4908003A0319F62CC4
:100AD800013A0319062D033A0319262D013A031981
:100AE800572D073A0319792D792D08007E2D82316B
:100AF80044228531F601843180248531003A031976
:100B0800862D872D7B2D22000E123030F000823189
:100B18008822853122000E1624302000A0002130C2
:100B2800F0000030F1000030F200F3001930F4005A
:100B38000030F5008231C22285312130F0000030CA
:100B4800F1004D30F2008830F3000430F40000303A
:100B5800F50083318C23853122000E122030F000FD
:100B68000030F1000530F2000030F30083314A23F1
:100B7800853122000E162C302000A0002130F00014
:100B88000030F1000030F200F3001930F4000030BA
:100B9800F5008231C222853117302000A1002200E1
:100BA8000E122030F0000030F1000230F200003068
:100BB800F30083314A23853122000E162E3020009F
:100BC800A0002130F0000030F1000030F200F30006
:100BD8001930F4000030F5008231C222853110301E
:100BE8002000A10022000E122030F0000030F10099
:100BF8000230F2000030F30083314A2385312200AD
:100C08000E160E123030F000823188228531220013
:100C18000E168231442285310800152E8231442275
:100C28008631F601843180248631003A03191D2E5D
:100C38001E2E122E22000E123030F0008231882231
:100C4800863122000E1624302000A0002130F0004A
:100C58000030F1000030F200F3001930F4000030E9
:100C6800F5008231C22286312130F0000030F100D7
:100C78004930F2008830F3000430F4000030F50009
:100C880083318C23863122000E122030F000003090
:100C9800F1000530F2000030F30083314A23863139
:100CA80022000E162C302000A0002130F000003069
:100CB800F1000030F200F3001930F4000030F500C4
:100CC8008231C22286311A302000A10022000E1281
:100CD8002030F0000030F1000230F2000030F30064
:100CE80083314A23863122000E162E302000A000C0
:100CF8002130F0000030F1000030F200F30019302C
:100D0800F4000030F5008231C22286310430200020
:100D1800A10022000E122030F0000030F100023055
:100D2800F2000030F30083314A23863122000E1688
:100D38000E123030F00082318822863122000E16E1
:100D48008231442286310800AC2E82314422863119
:100D5800F601843180248631003A0319B42EB52E69
:100D6800A92E22000E123030F000823188228631FE
:100D780022000E1624302000A0002130F0000030A0
:100D8800F1000030F200F3001930F4000030F500F3
:100D98008231C22286312130F0000030F100453026
:100DA800F2008830F3000430F4000030F50083319D
:100DB8008C23863122000E122030F0000030F10022
:100DC8000530F2000030F30083314A2386312200D7
:100DD8000E162C302000A0002130F0000030F10069
:100DE8000030F200F3001930F4000030F5008231D1
:100DF800C222863117302000A10022000E122030B6
:100E0800F0000030F1000230F2000030F3008331CE
:100E18004A23863122000E162E302000A0002130F1
:100E2800F0000030F1000030F200F3001930F40057
:100E38000030F5008231C222863108302000A1003E
:100E480022000E122030F0000030F1000230F200D3
:100E58000030F30083314A23863122000E160E1229
:100E68003030F00082318822863122000E1682311D
:100E7800442286310800432F823144228731F6010B
:100E8800843180248731003A03194B2F4C2F402F8F
:100E980020308600003087000630FA0000301E003F
:100EA800FA0B532F31302000A8000C30A900220083
:100EB8000E122830F0000030F1000230F20000304D
:100EC800F30083314A23873122000E160D30FA00D1
:100ED800FC30890B6D2FFA0B6D2F22000E12323069
:100EE800F00082314A2287312030F0000630F100CC
:100EF8000030F20083316A23873122000E168231D6
:100F08004422873120002108FA00FB01FA1BFB0369
:100F18007A08C03EC200FF307B3DC3002308C400EE
:100F2800C501C41BC5032508C600C701C61BC703E6
:100F38004308F1004208F0004308F3004208F200B9
:100F480083312B23873171082000C3007008C20049
:100F58004508F1004408F0004508F3004408F20091
:100F680083312B23873171082000C5007008C40025
:100F78004708F1004608F0004708F3004608F20069
:100F880083312B23873171082000C7007008C60001
:100F980044084207FA004508433DFB0046087A0723
:100FA800A60047087B3DA70004302702B03003198C
:100FB80026020318E02FE12FE32F0130E42F003041
:100FC8000800F0308400223085000030FE00013037
:100FD800FF00823194228731FC01FD014E308400EC
:100FE800003085000B30FE000030FF008231942273
:100FF800873120008331D62B733402340034003417
:101008008034043444340234003400346A34033401
:101018004A34033488340234003400344A34023405
:101028000034003400340034003400340034003418
:1010380000341A3410340734003440340A3410347D
:10104800073400346434003410340134003400347C
:1010580000340034003400340034003400340034E8
:101068000034003400340034003418340334FF34BE
:101078007F34073418340034003417340834043407
:101088000034083403340234FF3430340334013478
:0E1098007F3418340334FF347F34B034043412
:020000040001F9
:04000E00CC3FFF3EA6
:00000001FF
