:08000000803102288731FD2F39
:100EAA0019302100970008007508F3007408F20051
:100EBA0008007508F1007408F00008006A30210083
:100ECA009900220096012100980108002700931C2E
:100EDA006F2F702F732F87318927873108002100E0
:100EEA00911120009111240094019501970192011A
:100EFA0008008B10210015170030F4000030F500AF
:100F0A0087315927873108007008710403198E2F19
:100F1A008F2F942F71088A0070080A0087312700E2
:100F2A00931008008731632787318731D8278731A3
:100F3A0087317427873187315527873187317E2753
:100F4A0087310800873197278731031022008C1ECA
:100F5A0003140318B12FB42F22008C16B62F2200C7
:100F6A008C1287316B27873100006300AA2F8031EA
:100F7A0002284E30F400EB30890BC12FF40BC12F3D
:100F8A00000020008C18CA2FCB2FD72F0310220065
:100F9A000C1E03140318D22FD52F22000C16D72F9C
:100FAA0022000C12080022008C0118308E000F302B
:100FBA0021008C0002308E0023008C018E010A3041
:100FCA0024008C008E012100951327008C018E01CC
:100FDA0022009D0127009101023092009301BE3048
:100FEA00F4000730F50087315E2787318B1508003A
:100FFA0020008731A72F74340734003400340034BA
:10100A000034003400340034003400340034003436
:10101A000034003400340034003400340034003426
:10102A000034003400340034003400340034003416
:10103A001A34103407340034643400341034013460
:02104A00003470
:020000040001F9
:04000E00CC3FFF3EA6
:00000001FF
