:10000000803102288731D22F22008C0118308E00D7
:100010000F3021008C0002308E0023008C018E01F5
:100020000A3024008C008E012100951327008C01DA
:100030008E0122009D012700910102309200930160
:10004000EF30F0000E30F1008E314B2680318B15F1
:1000500008002000A0002F288E3133268031F601C1
:100060008031DC208031003A0319372838282C28C9
:100070001E302000A1002008A20022000E12213014
:10008000F0000030F1000230F2000030F3008F3158
:100090004627803122000E161F302000A1007A086A
:1000A000A20022000E122130F0000030F1000230D8
:1000B000F2000030F3008F314627803122000E1607
:1000C00020302000A1007B08A20022000E12213067
:1000D000F0000030F1000230F2000030F3008F3108
:1000E0004627803122000E168E31332680310800DB
:1000F0007C288E3133268031F6018031DC2080313E
:10010000003A031984288528792864302000A0004B
:100110002130F0000030F1000030F200F30019301F
:10012000F4000030F5008E31BE2680312130F00021
:100130000030F1003930F2009030F3000C30F40060
:100140000030F5008F318827803122000E122030D8
:10015000F0000030F1000D30F2000030F3008F317C
:100160004627803122000E1631302000A0002130B9
:10017000F0000030F1000030F200F3001930F4001C
:100180000030F5008E31BE2680310B302000A100FA
:1001900022000E122030F0000030F1000230F20098
:1001A0000030F3008F314627803122000E168E3149
:1001B00033268031013008002400951AE028E12818
:1001C00045297608F700F8017708F0007808F10073
:1001D0000530F2000030F3008F31272780311C30CA
:1001E000700784001030713D8038850000082400BD
:1001F00094007608F700F8017708F0007808F1001D
:100200000530F2000030F3008F31272780311D3098
:10021000700784001030713D80388500000824008C
:1002200095007608F700F8017708F0007808F100EB
:100230000530F2000030F3008F31272780311E3067
:10024000700784001030713D80388500000824005C
:1002500097007608F700F8017708F0007808F100B9
:100260000530F2000030F3008F31272780311F3036
:10027000700784001030713D80388500000824002C
:10028000920095160130F9004629F9017908080015
:1002900001302000DE070030DF3D0130DC07003098
:1002A000DD3DB9290C1D55295629D52982316D22EC
:1002B00081312000DE01DF0149088600870101301D
:1002C0008100D5290C1D65296629702983310423F5
:1002D0008131200049088600870102308100D5293C
:1002E00000305F02193003195E02031C7829792956
:1002F000D5298131D6218131200049088600870126
:100300008101D5290C1D85298629A92983319B23A3
:100310008131003A031D8D298E29792922008C16FE
:1003200082302000CA00DD30890B9429CA0B942941
:10033000003222008C122000DC01DD01E0018E3150
:10034000D5268131200049088600870103308100CD
:10035000D52900305F02E13003195E02031CB12988
:10036000B229D529792949088600870104308100FE
:10037000D5294908860087010108CA00CB014B082E
:10038000003A0319C429D5294A08003A0319522909
:10039000013A03196229033A03198229013A031920
:1003A000B329073A0319D529D5290800DA298E314E
:1003B00033268131F6018031DC208131003A031986
:1003C000E229E329D72922000E123030F0008E31C5
:1003D0007726813122000E1664302000A0002130E3
:1003E000F0000030F1000030F200F3001930F400AA
:1003F0000030F5008E31BE2681312130F000003012
:10040000F1004D30F2009030F3000430F400003081
:10041000F5008F318827813122000E122030F00044
:100420000030F1000530F2000030F3008F31462734
:10043000813122000E162C302000A0002130F00067
:100440000030F1000030F200F3001930F400003009
:10045000F5008E31BE26813117302000A100220028
:100460000E122030F0000030F1000230F2000030B7
:10047000F3008F314627813122000E162E302000E6
:10048000A0002130F0000030F1000030F200F30055
:100490001930F4000030F5008E31BE268131103065
:1004A0002000A10022000E122030F0000030F100E8
:1004B0000230F2000030F3008F31462781312200F4
:1004C0000E160E123030F0008E3177268131220068
:1004D0000E168E31332681310800712A8E31332673
:1004E0008231F6018031DC208231003A0319792A09
:1004F0007A2A6E2A22000E123030F0008E317726D2
:10050000823122000E1664302000A0002130F0005D
:100510000030F1000030F200F3001930F400003038
:10052000F5008E31BE2682312130F0000030F1001E
:100530004930F2009030F3000430F4000030F50050
:100540008F318827823122000E122030F0000030D7
:10055000F1000530F2000030F3008F314627823180
:1005600022000E162C302000A0002130F0000030B8
:10057000F1000030F200F3001930F4000030F50013
:100580008E31BE2682311A302000A10022000E12C8
:100590002030F0000030F1000230F2000030F300B3
:1005A0008F314627823122000E162E302000A00007
:1005B0002130F0000030F1000030F200F30019307B
:1005C000F4000030F5008E31BE2682310430200068
:1005D000A10022000E122030F0000030F1000230A5
:1005E000F2000030F3008F314627823122000E16D0
:1005F0000E123030F0008E317726823122000E1636
:100600008E31332682310800082B8E313326833118
:10061000F6018031DC208331003A0319102B112BB5
:10062000052B22000E123030F0008E3177268331F8
:1006300022000E1664302000A0002130F0000030AF
:10064000F1000030F200F3001930F4000030F50042
:100650008E31BE2683312130F0000030F10045306C
:10066000F2009030F3000430F4000030F5008F31D8
:100670008827833122000E122030F0000030F10074
:100680000530F2000030F3008F314627833122001D
:100690000E162C302000A0002130F0000030F100B8
:1006A0000030F200F3001930F4000030F5008E3114
:1006B000BE26833117302000A10022000E12203008
:1006C000F0000030F1000230F2000030F3008F3112
:1006D0004627833122000E162E302000A000213044
:1006E000F0000030F1000030F200F3001930F400A7
:1006F0000030F5008E31BE26833108302000A10085
:1007000022000E122030F0000030F1000230F20022
:100710000030F3008F314627833122000E160E126F
:100720003030F0008E317726833122000E168E3164
:100730003326833108009F2B8E3133268331F60117
:100740008031DC208331003A0319A72BA82B9C2B86
:1007500020308600003087000630FA0000301E008E
:10076000FA0BAF2B31302000A8000C30A90022007A
:100770000E122830F0000030F1000230F20000309C
:10078000F3008F314627833122000E160D30FA0018
:10079000FC30890BC92BFA0BC92B22000E12B23088
:1007A0002000C20042084038C2004208F0008E31EA
:1007B000392683312030F0000630F1000030F2009D
:1007C0008F316627833122000E168E313326833116
:1007D00020002108FA00FB01FA1BFB037A08C03E47
:1007E000C300FF307B3DC4002308C500C601C51B04
:1007F000C6032508C700C801C71BC8034408F10089
:100800004308F0004408F3004308F2008F31272723
:10081000833171082000C4007008C3004608F1004D
:100820004508F0004608F3004508F2008F312727FD
:10083000833171082000C6007008C5004808F10027
:100840004708F0004808F3004708F2008F312727D7
:10085000833171082000C8007008C70045084307AD
:10086000FA004608443DFB0047087A07A6004808FE
:100870007B3DA70004302702B0300319260203187D
:10088000422C432C452C0130462C003008008E3180
:10089000AB2684318E31622684318F31D327843167
:1008A000003A0319542C552C672C22000C160230E8
:1008B0002000CD004530CC00A930890B5D2CCC0B3D
:1008C0005D2CCD0B5D2C003222000C12782C220006
:1008D0008C1602302000CD004530CC00A930890BA9
:1008E0006F2CCC0B6F2CCD0B6F2C003222008C1296
:1008F000640002302000CD004530CC00A930890BC7
:100900007F2CCC0B7F2CCD0B7F2C003264008031F0
:1009100078208431003A03198E2C8F2CA12C2200D0
:100920000C1602302000CD004530CC00A930890BD8
:10093000972CCC0B972CCD0B972C003222000C124D
:10094000B22C22008C1602302000CD004530CC00A5
:10095000A930890BA92CCC0BA92CCD0BA92C0032CA
:1009600022008C1264001030F0000030F1008E3153
:100970008F268431573A0319BE2CBF2CEC2C8531BD
:100980004E258431003A0319C62CC72CBF2C2000F9
:10099000D101D20122000C168C1682302000CC002E
:1009A000DD30890BD12CCC0BD12C003222000C1263
:1009B0008C1201302000D1070030D23D5208803A1D
:1009C000CC0080304C02031DE72C03305102031C85
:1009D000EA2CEB2CCA2C152D00302300920002309B
:1009E00091003F309505151413082000CE0000300B
:1009F00023009200043091003F3095051514130830
:100A00002000CF00003023009200063091003F30DC
:100A10009505151413082000D0004F08FA0050085F
:100A2000FB004E088031292084312000D5018E3111
:100A30005926843155302000C90081314821843144
:100A4000043020005506031D262D272D492DD501E4
:100A5000D301D40122000C1682302000CC00DD30FE
:100A6000890B302DCC0B302D003222000C120130BE
:100A70002000D3070030D43D5408803ACC008030A9
:100A80004C02031D452D03305302031C482D492DF4
:100A90002A2D63000000172D80310228A030860027
:100AA000003087000C302000BB0000301E00BB0B64
:100AB000562D2100AE01AF01B001B101BE01BF0151
:100AC000642D8E3133268531F6018031DC2085316D
:100AD000003A03196C2D6D2D612D31302100C400B9
:100AE0000C30C50022000E12C430F0000030F100BE
:100AF0000230F2000030F3008F31462785312200AA
:100B00000E169A2D22000C1682302000BB00DD301C
:100B1000890B882DBB0B882D0032640022000C123B
:100B200082302000BB00DD30890B942DBB0B942D4F
:100B30000032640020008C189E2D9F2D822D6400B1
:100B400008302000BC009D30BB000530890BA62D6D
:100B5000BB0BA62DBC0BA62D003264002100B801F2
:100B6000B90122000E12B2302100BC003C0840380E
:100B7000BC003C08F0008E3139268531A030F000F1
:100B80000630F1000030F2008F31662785312200F7
:100B90000E1621002208AE072308AF3D2608B00735
:100BA0002708B13D2A08BE072B08BF3D07302000AB
:100BB000BB007D30890BDA2DBB0BDA2D64000130D0
:100BC0002100B8070030B93D3908803A2000BB0049
:100BD00080303B02031DEF2D803021003802031CC2
:100BE000F22DF32DB12D21003E083F04031DF92DF8
:100BF000FA2DFC2D0030D12F2F082000BC00210041
:100C00002E082000BB000730BD003C0DBC0CBB0C07
:100C1000BD0B052E3B082100C00020003C08210030
:100C2000C10031082000BC00210030082000BB00BA
:100C30000730BD003C0DBC0CBB0CBD0B1A2E3B0895
:100C40002100C20020003C082100C300C01F292E43
:100C50002A2E422E40092000BB002100410920001D
:100C6000BC00BB0A0319BC0A3C08803ABD008030B6
:100C70003D02031D3D2E10303B02031C402E412E31
:100C8000522EFA2D4108803A2000BB0080303B02F2
:100C9000031D4D2E103021004002031C502E512EFA
:100CA000522EFA2D2100C21F562E572E6F2E4209AA
:100CB0002000BB00210043092000BC00BB0A03192F
:100CC000BC0A3C08803ABD0080303D02031D6A2EFC
:100CD00010303B02031C6D2E6E2E7F2EFA2D430822
:100CE000803A2000BB0080303B02031D7A2E10307A
:100CF00021004202031C7D2E7E2E7F2EFA2D210024
:100D000040092000BB00210041092000BC00BB0AB3
:100D10000319BC0A3B082100B20020003C08210056
:100D2000B30042092000BB00210043092000BC00A1
:100D3000BB0A0319BC0A3B082100B40020003C0890
:100D40002100B5003F082000BC0021003E08200023
:100D5000BB000730BD003C0DBC0CBB0CBD0BAB2E6B
:100D60003B082100DE0020003C082100DF00BE011E
:100D7000BF01D22E22008C1682302000BB00DD3055
:100D8000890BC02EBB0BC02E0032640022008C12D7
:100D900082302000BB00DD30890BCC2EBB0BCC2E6B
:100DA0000032640020008C18D62ED72EBA2E640094
:100DB00008302000BC009D30BB000530890BDE2EC2
:100DC000BB0BDE2EBC0BDE2E003264002100BA010C
:100DD000BB013B08803A2000BB0080303B02031D72
:100DE000F42E803021003A02031CF72EF82EF92E43
:100DF000252F22000E12B2302100BD003D084038E0
:100E0000BD003D08F0008E3139268531A030F0005C
:100E10000C30F1000030F2008F316627853122005E
:100E20000E1621002A08BE072B08BF3D0730200000
:100E3000BB007D30890B1A2FBB0B1A2F64000130C9
:100E40002100BA070030BB3DE92E21003F082000F9
:100E5000BC0021003E082000BB000730BD003C0D57
:100E6000BC0CBB0CBD0B2F2F3B082100AC0020009D
:100E70003C082100AD005E082C072000BB002100CB
:100E80005F082D3D2000BC003C0D3C0C2100DF0024
:100E900020003B0C2100DE00DE1F4F2F502F682F5B
:100EA0005E092000BB0021005F092000BC00BB0AD6
:100EB0000319BC0A3C08803ABD0080303D02031D86
:100EC000632F20303B02031C662F672F782FFA2DEB
:100ED0005F08803A2000BB0080303B02031D732F67
:100EE000203021005E02031C762F772F782FFA2DF9
:100EF00021005E092000BB0021005F092000BC002A
:100F0000BB0A0319BC0A3B082100B60020003C08BC
:100F10002100B7003408FA003608FB00320880319F
:100F2000292085310230F0000030F1002100320824
:100F3000F2008F31092785310430F0000030F100D4
:100F400021003408F2008F31092785310630F00086
:100F50000030F10021003608F2008F310927853179
:100F60001030F0000030F1005730F2008F310927C7
:100F7000853131302100C4000B30C50022000E1233
:100F8000C430F0000030F1000230F2000030F30015
:100F90008F314627853122000E168E31332685315A
:100FA000013008008E3131268731E5008E3132263E
:100FB0008731E600F0308400223085000030FE00EA
:100FC0000130FF008E3183268731FC01FD01563050
:100FD0008400003085000B30FE000030FF008E31B1
:100FE00083268731E0308400003085000C30FE001D
:100FF0000030FF008E318326873120008431472C5A
:101C620080340034240095120800230095110800E6
:101C720070082400910008008E3136268E3108004B
:101C8200193021009700080071082000E400700854
:101C9200E300080071082000E2007008E10008007B
:101CA2006A30210099002200960121009801080063
:101CB2002700931C5D2E5E2E612E8E319C268E3166
:101CC2000800210091112000911124009401950136
:101CD2009701920108008B10210015170030F000C7
:101CE2000030F1008E3145268E3108007008240044
:101CF20091002000911D7E2E7F2E7A2E91112400BC
:101D0200110808006400800101310130FE02003038
:101D1200FF3B7F087E04031D842E0034230015132D
:101D220095137108920070089100151400000000CC
:101D32002300130808002000610862040319A22E80
:101D4200A32EA82E62088A0061080A008E3127009D
:101D5200931008008E3151268E31803104208E314D
:101D62008E313D268E318E3162268E318E31412664
:101D72008E318E316C268E3108007008F600C82E26
:101D8200760886008701720881000130F60701306B
:101D9200F4020030F53B740A031DD32E750A031DAD
:101DA200D32ED42EC12E0800D92E8E3133268E3159
:101DB200F6018031DC208E31003A0319E12EE22E49
:101DC200D62E22000E123030F0008E3177268E3160
:101DD20022000E168E3133268E3108004E30F0006E
:101DE200EB30890BF22EF00BF22E000020008C1843
:101DF200FB2EFC2E082F031022000C1E03140318C6
:101E0200032F062F22000C16082F22000C120800A6
:101E12000B0D0B0D0139F300230015139513151546
:101E22007108920070089100720893008B137D086C
:101E320096007C089600951400000000730C031CA9
:101E42008B1303188B17230015110800F401F501F9
:101E5200701C2C2F2D2F312F7208F4077308F53DBB
:101E62000130F235F30D890B322F0130F136F00CCF
:101E7200890B372F70087104031D402F412F292F22
:101E82007508F1007408F00008007008F600730885
:101E9200F5007208F4005F2F7608860087010108BA
:101EA200240091002000911D572F582F532F91117C
:101EB2000130F6070130F4020030F53B7408750476
:101EC200031D642F652F4D2F08007008F50072085E
:101ED200F4007108F300812F240091012000911D6C
:101EE200732F742F6F2F91117508860087012400BC
:101EF200110881000130F5070130F3020030F43B94
:101F020073087404031D862F872F6D2F0800730832
:101F1200F7007208F6007008F900A02F7608840016
:101F2200770885000008F8000130F6070030F73D19
:101F3200790886008701780881000130F9070130AD
:101F4200F4020030F53B740A031DAB2F750A031D22
:101F5200AB2FAC2F8F2F08007008F5007208F40029
:101F62007108F300CC2F7508860087010108240050
:101F720091002000911DBE2FBF2FBA2F911175081D
:101F8200860087012400110881000130F507013025
:101F9200F3020030F43B73087404031DD12FD22FD7
:101FA200B42F0800F6018031DC208F31003A03198A
:101FB200DB2FDC2FF92F22000E1220006608FB0017
:101FC2006508FA007A30F0000230F1000030F200C9
:101FD2008F31AD278F31E5307B06031DF12FF22FB4
:101FE200F92F22000E168E3133268F310130FF2F4A
:101FF20022000E168E3133268F31003008006234F3
:102002000E3400340034DC34003433340E34AD3456
:102012000F3466340F3446340F3477340E340034C0
:10202200003439340E3400340034003400340034C7
:1020320000340034003400341A34103407340034CD
:1020420040340A3410340734003464340034103419
:1020520001340034003400340034003400340034DD
:1020620000340034003400340034003400340034CE
:1020720018340334FF347F34073418340034003406
:102082001734083404340034083403340234FF347F
:102092003034033401347F3418340334FF347F3452
:0420A200B03404341E
:020000040001F9
:04000E00CC3FFF3EA6
:00000001FF
