:08000000803102288731FD2F39
:100CCA0019302100970008007108FD007008FC0027
:100CDA00080071082000A1007008A00008006A300E
:100CEA00210099002200960121009801080027009E
:100CFA00931C802E812E842E8631A62686310800EA
:100D0A00210091112000911124009401950197016D
:100D1A00920108008B10210015170030F0000030F6
:100D2A00F100863169268631080070082400910096
:100D3A002000911DA12EA22E9D2E91112400110892
:100D4A0008002000200821040319AC2EAD2EB22E73
:100D5A0021088A0020080A0086312700931008001B
:100D6A008631742686318631FE268631863185267D
:100D7A00863186316526863186318F26863108008E
:100D8A004E30F000EB30890BC82EF00BC82E000055
:100D9A0020008C18D12ED22EDE2E031022000C1E1B
:100DAA0003140318D92EDC2E22000C16DE2E220084
:100DBA000C120800F401F501701CE42EE52EE92E50
:100DCA007208F4077308F53D0130F235F30D890B0B
:100DDA00EA2E0130F136F00C890BEF2E70087104FF
:100DEA00031DF82EF92EE12E7508F1007408F000A3
:100DFA00080022008C0118308E000F3021008C0070
:100E0A0002308E0023008C018E010A3024008C00EF
:100E1A008E012100951327008C018E0122009D016D
:100E2A0027009101023092009301C530F00006308C
:100E3A00F10086316E2686318B1508002400951A3A
:100E4A00272F282F8C2F7608F700F8017708F00053
:100E5A007808F1000530F2000030F3008631DF2611
:100E6A0087311C30700784000830713D8038850056
:100E7A000008240094007608F700F8017708F000CB
:100E8A007808F1000530F2000030F3008631DF26E1
:100E9A0087311D30700784000830713D8038850025
:100EAA000008240095007608F700F8017708F0009A
:100EBA007808F1000530F2000030F3008631DF26B1
:100ECA0087311E30700784000830713D80388500F4
:100EDA000008240097007608F700F8017708F00068
:100EEA007808F1000530F2000030F3008631DF2681
:100EFA0087311F30700784000830713D80388500C3
:100F0A0000082400920095160130F9008D2FF9018E
:100F1A00790808008631B5268731863185268731DA
:100F2A00F601873123278731003A03199D2F9E2F17
:100F3A00AE2F22000C160230FB004530FA00AA3010
:100F4A00890BA52FFA0BA52FFB0BA52F22000C123C
:100F5A00BD2F22008C160230FB004530FA00AA3061
:100F6A00890BB52FFA0BB52FFB0BB52F22008C126C
:100F7A0064000230FB004530FA00AA30890BC32F07
:100F8A00FA0BC32FFB0BC32F640022000E12F001D1
:100F9A0086319A268731E53A031DD42FD52FE52FBE
:100FAA0022000C160230FB004530FA00AA30890BE9
:100FBA00DC2FFA0BDC2FFB0BDC2F22000C12F42F98
:100FCA0022008C160230FB004530FA00AA30890B49
:100FDA00EC2FFA0BEC2FFB0BEC2F22008C120E16C7
:100FEA0086317C26873100006300F52F8031022884
:100FFA00200087318F2F853406340034003423349F
:10100A00073400340034003400340034003400342F
:10101A0000349A3406340034003400340034003486
:10102A000034003400340034003400340034003416
:10103A001A34103407340034643400341034013460
:02104A00003470
:020000040001F9
:04000E00CC3FFF3EA6
:00000001FF
