:08000000803102288731F22F44
:100B50002400951208001930210097000800710840
:100B60002000BD007008BC00080071082000BB0018
:100B70007008BA0008006A3021009900220096012E
:100B80002100980108002700931CC72DC82DCB2DEC
:100B90008531F9258531080021009111200091113E
:100BA0002400940195019701920108008B10210007
:100BB00015170030F0000030F1008531AF25853188
:100BC00008007008240091002000911DE82DE92DF7
:100BD000E42D911124001108080064008001013106
:100BE0000130FE020030FF3B7F087E04031DEE2D26
:100BF000003420003A083B040319FF2D002E052E77
:100C00003B088A003A080A00863127009310080042
:100C10008531BB2586318631AB2686318531CC25A1
:100C200086318531AB2586318531D6258631080060
:100C3000F6007608F500252E7508860087017008F5
:100C400081000130F4007408F5070130F202003031
:100C5000F33B720A031D302E730A031D302E312E12
:100C60001C2E08004E30F000EB30890B352EF00BB7
:100C7000352E000020008C183E2E3F2E4B2E0310E8
:100C800022000C1E03140318462E492E22000C16B7
:100C90004B2E22000C120800FA01F601873186273C
:100CA0008631003A0319552E562E652E22000E125B
:100CB000F0018531E1258631E53A031D602E612E74
:100CC000632EFA01FA0A22000E168531A825863114
:100CD0007A080800F401F501701C6F2E702E742E36
:100CE0007208F4077308F53D0130F235F30D890BF6
:100CF000752E0130F136F00C890B7A2E70087104D4
:100D0000031D832E842E6C2E7508F1007408F000EC
:100D100008007008F6007208F5007108F400A42EAF
:100D20007608860087010108240091002000911DAB
:100D30009A2E9B2E962E91110130F3007308F60720
:100D40000130F4020030F53B74087504031DA92E30
:100D5000AA2E902E080022008C0118308E000F3031
:100D600021008C0002308E0023008C018E010A309D
:100D700024008C008E012100951327008C018E0128
:100D800022009D0127009101023092009301323030
:100D9000F0000630F1008531B52586318B1508004D
:100DA000F9007108F6007008F5007908F800EB2EDC
:100DB00075088400760885000008F7000130F50703
:100DC0000030F63D78088600870177088100013001
:100DD000F4007408F8070130F2020030F33B720AA5
:100DE000031DF62E730A031DF62EF72ED82E0800CB
:100DF0008631082686318531CC25863122000E16B3
:100E00008E1586314C268631003A0319082F092F9A
:100E1000192F22000C160230FC004530FB00AA30CE
:100E2000890B102FFB0B102FFC0B102F22000C1224
:100E3000282F22008C160230FC004530FB00AA301F
:100E4000890B202FFB0B202FFC0B202F22008C1254
:100E50008731332786318531C32586316300000011
:100E60002B2F80310228F601873186278731003AFF
:100E7000031D3B2F3C2F3D2F852F24302000A00049
:100E80000030F000F1001930F2000030F3002130A2
:100E90008631182687312B30F0008830F1000C3075
:100EA000F2000030F30021308631D0268731220055
:100EB0000E122030F0000D30F1000030F2008631CB
:100EC0008926873122000E1631302000A000003024
:100ED000F000F1001930F2000030F30021308631CB
:100EE000182687310B302000A10022000E1220307E
:100EF000F0000230F1000030F2008631892687319F
:100F000022000E168531A825873108002400951A85
:100F10008A2F8B2FEF2F7608F700F8017708F00063
:100F20007808F1000530F2000030F30086316A26BF
:100F300087311C30700784000830713D803885008F
:100F40000008240094007608F700F8017708F00004
:100F50007808F1000530F2000030F30086316A268F
:100F600087311D30700784000830713D803885005E
:100F70000008240095007608F700F8017708F000D3
:100F80007808F1000530F2000030F30086316A265F
:100F900087311E30700784000830713D803885002D
:100FA0000008240097007608F700F8017708F000A1
:100FB0007808F1000530F2000030F30086316A262F
:100FC00087311F30700784000830713D80388500FC
:100FD0000008240092009516F901F90AF02FF90192
:100FE00079080800F0308400223085000030FE00CF
:100FF0000130FF008531ED25873120008631F82E44
:10100000CC3405340034003486340734A834053435
:10101000003400340034003489340634E1340534BB
:101020000034003400340034003400340034003420
:10103000003400340034003400341A3410340734DF
:10104000003440340A34103407340034643400343B
:1010500010340134003418340334FF347F3407343F
:10106000183400340034173408340434003408349D
:1010700003340234FF343034033401347F34183401
:061080000334FF347F344D
:020000040001F9
:04000E00CC3FFF3EA6
:00000001FF
