:08000000803102288731FD2F39
:100BE00024009512080019302100970008007108B0
:100BF000FD007008FC00080071082000A1007008CA
:100C0000A00008006A30210099002200960121000E
:100C1000980108002700931C0E2E0F2E122E8631ED
:100C20003426863108002100911120009111240002
:100C3000940195019701920108008B10210015176E
:100C40000030F0000030F1008531F72586310800D2
:100C50007008240091002000911D2F2E302E2B2E85
:100C60009111240011080800200020082104031914
:100C70003A2E3B2E402E21088A0020080A00863199
:100C800027009310080086310226863186318C2693
:100C900086318631132686318531F32586318631BA
:100CA0001D26863108004E30F000EB30890B562EA1
:100CB000F00B562E000020008C185F2E602E6C2E3C
:100CC000031022000C1E03140318672E6A2E220044
:100CD0000C166C2E22000C120800F401F501701C99
:100CE000722E732E772E7208F4077308F53D0130CB
:100CF000F235F30D890B782E0130F136F00C890BAB
:100D00007D2E70087104031D862E872E6F2E7508A8
:100D1000F1007408F000080022008C0118308E00E9
:100D20000F3021008C0002308E0023008C018E01D8
:100D30000A3024008C008E012100951327008C01BD
:100D40008E0122009D012700910102309200930143
:100D50005330F0000630F1008531FC2586318B15CB
:100D600008002400951AB52EB62E1A2F7608F70023
:100D7000F8017708F0007808F1000530F200003043
:100D8000F30086316D2686311C30700784000830F0
:100D9000713D803885000008240094007608F70033
:100DA000F8017708F0007808F1000530F200003013
:100DB000F30086316D2686311D30700784000830BF
:100DC000713D803885000008240095007608F70002
:100DD000F8017708F0007808F1000530F2000030E3
:100DE000F30086316D2686311E307007840008308E
:100DF000713D803885000008240097007608F700D0
:100E0000F8017708F0007808F1000530F2000030B2
:100E1000F30086316D2686311F307007840008305C
:100E2000713D80388500000824009200951601303D
:100E3000F9001B2FF9017908080086314326873114
:100E4000863113268731F6018631B1268731003A83
:100E500003192B2F2C2F3C2F22000C160230FB00E5
:100E60004530FA00AA30890B332FFA0B332FFB0BD6
:100E7000332F22000C124B2F22008C160230FB0065
:100E80004530FA00AA30890B432FFA0B432FFB0B96
:100E9000432F22008C1264000230FB004530FA0020
:100EA000AA30890B512FFA0B512FFB0B512F6400E5
:100EB00022000E12F001863128268731E53A031D03
:100EC000622F632F732F22000C160230FB00453077
:100ED000FA00AA30890B6A2FFA0B6A2FFB0B6A2FD4
:100EE00022000C12822F22008C160230FB004530AB
:100EF000FA00AA30890B7A2FFA0B7A2FFB0B7A2F84
:100F000022008C120E168531F025873164000230E4
:100F1000FB004530FA00AA30890B8C2FFA0B8C2F7E
:100F2000FB0B8C2F6400F601F60A8631B12687315F
:100F3000003A03199C2F9D2FAD2F22000C16023072
:100F4000FB004530FA00AA30890BA42FFA0BA42F1E
:100F5000FB0BA42F22000C12BC2F22008C16023097
:100F6000FB004530FA00AA30890BB42FFA0BB42FDE
:100F7000FB0BB42F22008C1264000230FB004530C2
:100F8000FA00AA30890BC22FFA0BC22FFB0BC22F1B
:100F9000640022008E11F001F00A86312826873184
:100FA000003A0319D42FD52FE52F22000C1602305A
:100FB000FB004530FA00AA30890BDC2FFA0BDC2F3E
:100FC000FB0BDC2F22000C12F42F22008C160230B7
:100FD000FB004530FA00AA30890BEC2FFA0BEC2FFE
:100FE000FB0BEC2F22008C128E1586310A268731DE
:100FF00000006300F52F80310228200087311D2F6B
:101000001334063400340034B1340634F03405347B
:101010000034003400340034003400342834063402
:101020000034003400340034003400340034003420
:10103000003400340034003400341A3410340734DF
:10104000003440340A34103407340034643400343B
:06105000103401340034ED
:020000040001F9
:04000E00CC3FFF3EA6
:00000001FF
