:08000000803102288731FD2F39
:100EE4007508F3007408F20008007508F10074082E
:100EF400F00008006A3021009900220096012100C8
:100F0400980108002700931C882F892F8C2F873184
:100F1400A327873108008B10210015170030F40037
:100F24000030F50087317227873108008731B127F7
:100F34008731873184278731000063009B2F8031FC
:100F44000228700871040319A82FA92FAE2F710865
:100F54008A0070080A00873127009310080087313F
:100F64007C2787318731DB27873187318D2787318C
:100F7400210017141708C1391838970008004E309B
:100F8400F400EB30890BC42FF40BC42F00002000B5
:100F94008C18CD2FCE2FDA2F031022000C1E031431
:100FA4000318D52FD82F22000C16DA2F22000C128A
:100FB400080022008C0118308E000F3021008C00B4
:100FC40002308E0023008C018E010A3024008C0034
:100FD4008E012100951327008C018E0191010230AE
:100FE40092009301C130F4000730F5008731772770
:0C0FF40087318B15080020008731982FF2
:020000040001F9
:04000E00CC3FFF3EA6
:00000001FF
